{
  "contractName": "Twitter",
  "abi": [
    {
      "anonymous": false,
      "inputs": [
        {
          "indexed": false,
          "internalType": "uint256",
          "name": "id",
          "type": "uint256"
        },
        {
          "indexed": false,
          "internalType": "string",
          "name": "content",
          "type": "string"
        },
        {
          "indexed": true,
          "internalType": "address",
          "name": "from",
          "type": "address"
        },
        {
          "indexed": true,
          "internalType": "address",
          "name": "to",
          "type": "address"
        },
        {
          "indexed": false,
          "internalType": "uint256",
          "name": "createdDate",
          "type": "uint256"
        }
      ],
      "name": "sendMessage",
      "type": "event"
    },
    {
      "anonymous": false,
      "inputs": [
        {
          "indexed": false,
          "internalType": "uint256",
          "name": "id",
          "type": "uint256"
        },
        {
          "indexed": false,
          "internalType": "string",
          "name": "content",
          "type": "string"
        },
        {
          "indexed": true,
          "internalType": "address",
          "name": "author",
          "type": "address"
        },
        {
          "indexed": false,
          "internalType": "uint256",
          "name": "createdDate",
          "type": "uint256"
        }
      ],
      "name": "sendTweet",
      "type": "event"
    },
    {
      "inputs": [
        {
          "internalType": "string",
          "name": "_content",
          "type": "string"
        }
      ],
      "name": "tweet",
      "outputs": [],
      "stateMutability": "nonpayable",
      "type": "function"
    },
    {
      "inputs": [
        {
          "internalType": "address",
          "name": "_from",
          "type": "address"
        },
        {
          "internalType": "string",
          "name": "_content",
          "type": "string"
        }
      ],
      "name": "tweetFrom",
      "outputs": [],
      "stateMutability": "nonpayable",
      "type": "function"
    },
    {
      "inputs": [
        {
          "internalType": "string",
          "name": "_content",
          "type": "string"
        },
        {
          "internalType": "address",
          "name": "_to",
          "type": "address"
        }
      ],
      "name": "message",
      "outputs": [],
      "stateMutability": "nonpayable",
      "type": "function"
    },
    {
      "inputs": [
        {
          "internalType": "address",
          "name": "_followed",
          "type": "address"
        }
      ],
      "name": "follow",
      "outputs": [],
      "stateMutability": "nonpayable",
      "type": "function"
    },
    {
      "inputs": [
        {
          "internalType": "uint256",
          "name": "_tweetId",
          "type": "uint256"
        }
      ],
      "name": "like",
      "outputs": [],
      "stateMutability": "nonpayable",
      "type": "function"
    },
    {
      "inputs": [
        {
          "internalType": "uint256",
          "name": "count",
          "type": "uint256"
        }
      ],
      "name": "getlatestTweets",
      "outputs": [
        {
          "components": [
            {
              "internalType": "uint256",
              "name": "id",
              "type": "uint256"
            },
            {
              "internalType": "string",
              "name": "content",
              "type": "string"
            },
            {
              "internalType": "address",
              "name": "author",
              "type": "address"
            },
            {
              "internalType": "uint256",
              "name": "createdDate",
              "type": "uint256"
            },
            {
              "internalType": "uint256",
              "name": "likedTweetCounts",
              "type": "uint256"
            }
          ],
          "internalType": "struct Twitter.Tweet[]",
          "name": "",
          "type": "tuple[]"
        }
      ],
      "stateMutability": "view",
      "type": "function"
    },
    {
      "inputs": [
        {
          "internalType": "address",
          "name": "_user",
          "type": "address"
        },
        {
          "internalType": "uint256",
          "name": "count",
          "type": "uint256"
        }
      ],
      "name": "getTweetsOf",
      "outputs": [
        {
          "components": [
            {
              "internalType": "uint256",
              "name": "id",
              "type": "uint256"
            },
            {
              "internalType": "string",
              "name": "content",
              "type": "string"
            },
            {
              "internalType": "address",
              "name": "author",
              "type": "address"
            },
            {
              "internalType": "uint256",
              "name": "createdDate",
              "type": "uint256"
            },
            {
              "internalType": "uint256",
              "name": "likedTweetCounts",
              "type": "uint256"
            }
          ],
          "internalType": "struct Twitter.Tweet[]",
          "name": "",
          "type": "tuple[]"
        }
      ],
      "stateMutability": "view",
      "type": "function"
    }
  ],
  "bytecode": "0x608060405234801561001057600080fd5b50611bce806100206000396000f3fe608060405234801561001057600080fd5b506004361061007d5760003560e01c80635b4d42141161005b5780635b4d4214146100ea578063c6bc463c1461011a578063e82935da14610136578063fb46d4c5146101525761007d565b80630fa737f4146100825780631f83ddac1461009e5780634dbf27cc146100ce575b600080fd5b61009c60048036038101906100979190611258565b61016e565b005b6100b860048036038101906100b391906112ee565b6101c2565b6040516100c5919061150a565b60405180910390f35b6100e860048036038101906100e3919061152c565b6103e1565b005b61010460048036038101906100ff9190611559565b61063c565b604051610111919061150a565b60405180910390f35b610134600480360381019061012f9190611599565b6108c1565b005b610150600480360381019061014b91906112ee565b610914565b005b61016c600480360381019061016791906115f9565b610a93565b005b6101bd338285858080601f016020809104026020016040519081016040528093929190818152602001838380828437600081840152601f19601f82011690508083019250505050505050610ae5565b505050565b60606000821180156101d657506006548211155b610215576040517f08c379a000000000000000000000000000000000000000000000000000000000815260040161020c906116a3565b60405180910390fd5b60008267ffffffffffffffff811115610231576102306116c3565b5b60405190808252806020026020018201604052801561026a57816020015b6102576110a3565b81526020019060019003908161024f5790505b50905060005b838110156103d757600081856006546102899190611721565b6102939190611755565b9050600080600083815260200190815260200160002090506040518060a00160405280826000015481526020018260010180546102cf906117da565b80601f01602080910402602001604051908101604052809291908181526020018280546102fb906117da565b80156103485780601f1061031d57610100808354040283529160200191610348565b820191906000526020600020905b81548152906001019060200180831161032b57829003601f168201915b505050505081526020018260020160009054906101000a900473ffffffffffffffffffffffffffffffffffffffff1673ffffffffffffffffffffffffffffffffffffffff1681526020018260030154815260200182600401548152508484815181106103b7576103b661180b565b5b6020026020010181905250505080806103cf9061183a565b915050610270565b5080915050919050565b3373ffffffffffffffffffffffffffffffffffffffff168173ffffffffffffffffffffffffffffffffffffffff160361044f576040517f08c379a0000000000000000000000000000000000000000000000000000000008152600401610446906118ce565b60405180910390fd5b60005b600260003373ffffffffffffffffffffffffffffffffffffffff1673ffffffffffffffffffffffffffffffffffffffff16815260200190815260200160002080549050811015610598578173ffffffffffffffffffffffffffffffffffffffff16600260003373ffffffffffffffffffffffffffffffffffffffff1673ffffffffffffffffffffffffffffffffffffffff16815260200190815260200160002082815481106105045761050361180b565b5b9060005260206000200160009054906101000a900473ffffffffffffffffffffffffffffffffffffffff1673ffffffffffffffffffffffffffffffffffffffff1603610585576040517f08c379a000000000000000000000000000000000000000000000000000000000815260040161057c9061193a565b60405180910390fd5b80806105909061183a565b915050610452565b50600260003373ffffffffffffffffffffffffffffffffffffffff1673ffffffffffffffffffffffffffffffffffffffff168152602001908152602001600020819080600181540180825580915050600190039060005260206000200160009091909190916101000a81548173ffffffffffffffffffffffffffffffffffffffff021916908373ffffffffffffffffffffffffffffffffffffffff16021790555050565b60606000600360008573ffffffffffffffffffffffffffffffffffffffff1673ffffffffffffffffffffffffffffffffffffffff1681526020019081526020016000209050600083118015610695575080805490508311155b6106d4576040517f08c379a00000000000000000000000000000000000000000000000000000000081526004016106cb906116a3565b60405180910390fd5b60008367ffffffffffffffff8111156106f0576106ef6116c3565b5b60405190808252806020026020018201604052801561072957816020015b6107166110a3565b81526020019060019003908161070e5790505b50905060005b848110156108b55760008186858054905061074a9190611721565b6107549190611755565b9050600080600086848154811061076e5761076d61180b565b5b9060005260206000200154815260200190815260200160002090506040518060a00160405280826000015481526020018260010180546107ad906117da565b80601f01602080910402602001604051908101604052809291908181526020018280546107d9906117da565b80156108265780601f106107fb57610100808354040283529160200191610826565b820191906000526020600020905b81548152906001019060200180831161080957829003601f168201915b505050505081526020018260020160009054906101000a900473ffffffffffffffffffffffffffffffffffffffff1673ffffffffffffffffffffffffffffffffffffffff1681526020018260030154815260200182600401548152508484815181106108955761089461180b565b5b6020026020010181905250505080806108ad9061183a565b91505061072f565b50809250505092915050565b61090f8383838080601f016020809104026020016040519081016040528093929190818152602001838380828437600081840152601f19601f82011690508083019250505050505050610df1565b505050565b6006548110610958576040517f08c379a000000000000000000000000000000000000000000000000000000000815260040161094f906119a6565b60405180910390fd5b6004600082815260200190815260200160002060003373ffffffffffffffffffffffffffffffffffffffff1673ffffffffffffffffffffffffffffffffffffffff16815260200190815260200160002060009054906101000a900460ff16156109f6576040517f08c379a00000000000000000000000000000000000000000000000000000000081526004016109ed90611a12565b60405180910390fd5b60008060008381526020019081526020016000209050806004016000815480929190610a219061183a565b919050555060016004600084815260200190815260200160002060003373ffffffffffffffffffffffffffffffffffffffff1673ffffffffffffffffffffffffffffffffffffffff16815260200190815260200160002060006101000a81548160ff0219169083151502179055505050565b610ae13383838080601f016020809104026020016040519081016040528093929190818152602001838380828437600081840152601f19601f82011690508083019250505050505050610df1565b5050565b823373ffffffffffffffffffffffffffffffffffffffff168173ffffffffffffffffffffffffffffffffffffffff161480610ba65750600560008273ffffffffffffffffffffffffffffffffffffffff1673ffffffffffffffffffffffffffffffffffffffff16815260200190815260200160002060003373ffffffffffffffffffffffffffffffffffffffff1673ffffffffffffffffffffffffffffffffffffffff16815260200190815260200160002060009054906101000a900460ff165b610be5576040517f08c379a0000000000000000000000000000000000000000000000000000000008152600401610bdc90611a7e565b60405180910390fd5b60008484604051602001610bfa929190611ae6565b6040516020818303038152906040528051906020012060001c9050600160008281526020019081526020016000206040518060a0016040528060075481526020018581526020018773ffffffffffffffffffffffffffffffffffffffff1681526020018673ffffffffffffffffffffffffffffffffffffffff168152602001428152509080600181540180825580915050600190039060005260206000209060050201600090919091909150600082015181600001556020820151816001019080519060200190610ccc9291906110e8565b5060408201518160020160006101000a81548173ffffffffffffffffffffffffffffffffffffffff021916908373ffffffffffffffffffffffffffffffffffffffff16021790555060608201518160030160006101000a81548173ffffffffffffffffffffffffffffffffffffffff021916908373ffffffffffffffffffffffffffffffffffffffff1602179055506080820151816004015550508373ffffffffffffffffffffffffffffffffffffffff168573ffffffffffffffffffffffffffffffffffffffff167f074747cffefd503742c4925bc3306726a3ab7406edba1aa6bc9a6e34303264ca6007548642604051610dca93929190611b5a565b60405180910390a360076000815480929190610de59061183a565b91905055505050505050565b813373ffffffffffffffffffffffffffffffffffffffff168173ffffffffffffffffffffffffffffffffffffffff161480610eb25750600560008273ffffffffffffffffffffffffffffffffffffffff1673ffffffffffffffffffffffffffffffffffffffff16815260200190815260200160002060003373ffffffffffffffffffffffffffffffffffffffff1673ffffffffffffffffffffffffffffffffffffffff16815260200190815260200160002060009054906101000a900460ff165b610ef1576040517f08c379a0000000000000000000000000000000000000000000000000000000008152600401610ee890611a7e565b60405180910390fd5b6040518060a0016040528060065481526020018381526020018473ffffffffffffffffffffffffffffffffffffffff16815260200142815260200160008152506000806006548152602001908152602001600020600082015181600001556020820151816001019080519060200190610f6b9291906110e8565b5060408201518160020160006101000a81548173ffffffffffffffffffffffffffffffffffffffff021916908373ffffffffffffffffffffffffffffffffffffffff1602179055506060820151816003015560808201518160040155905050600360008473ffffffffffffffffffffffffffffffffffffffff1673ffffffffffffffffffffffffffffffffffffffff16815260200190815260200160002060065490806001815401808255809150506001900390600052602060002001600090919091909150558273ffffffffffffffffffffffffffffffffffffffff167fe778fcdb48bbbb3d5c9c626fab1b64bcad12801dfbb980444d51554d433b1497600654844260405161107e93929190611b5a565b60405180910390a2600660008154809291906110999061183a565b9190505550505050565b6040518060a001604052806000815260200160608152602001600073ffffffffffffffffffffffffffffffffffffffff16815260200160008152602001600081525090565b8280546110f4906117da565b90600052602060002090601f016020900481019282611116576000855561115d565b82601f1061112f57805160ff191683800117855561115d565b8280016001018555821561115d579182015b8281111561115c578251825591602001919060010190611141565b5b50905061116a919061116e565b5090565b5b8082111561118757600081600090555060010161116f565b5090565b600080fd5b600080fd5b600080fd5b600080fd5b600080fd5b60008083601f8401126111ba576111b9611195565b5b8235905067ffffffffffffffff8111156111d7576111d661119a565b5b6020830191508360018202830111156111f3576111f261119f565b5b9250929050565b600073ffffffffffffffffffffffffffffffffffffffff82169050919050565b6000611225826111fa565b9050919050565b6112358161121a565b811461124057600080fd5b50565b6000813590506112528161122c565b92915050565b6000806000604084860312156112715761127061118b565b5b600084013567ffffffffffffffff81111561128f5761128e611190565b5b61129b868287016111a4565b935093505060206112ae86828701611243565b9150509250925092565b6000819050919050565b6112cb816112b8565b81146112d657600080fd5b50565b6000813590506112e8816112c2565b92915050565b6000602082840312156113045761130361118b565b5b6000611312848285016112d9565b91505092915050565b600081519050919050565b600082825260208201905092915050565b6000819050602082019050919050565b611350816112b8565b82525050565b600081519050919050565b600082825260208201905092915050565b60005b83811015611390578082015181840152602081019050611375565b8381111561139f576000848401525b50505050565b6000601f19601f8301169050919050565b60006113c182611356565b6113cb8185611361565b93506113db818560208601611372565b6113e4816113a5565b840191505092915050565b6113f88161121a565b82525050565b600060a0830160008301516114166000860182611347565b506020830151848203602086015261142e82826113b6565b915050604083015161144360408601826113ef565b5060608301516114566060860182611347565b5060808301516114696080860182611347565b508091505092915050565b600061148083836113fe565b905092915050565b6000602082019050919050565b60006114a08261131b565b6114aa8185611326565b9350836020820285016114bc85611337565b8060005b858110156114f857848403895281516114d98582611474565b94506114e483611488565b925060208a019950506001810190506114c0565b50829750879550505050505092915050565b600060208201905081810360008301526115248184611495565b905092915050565b6000602082840312156115425761154161118b565b5b600061155084828501611243565b91505092915050565b600080604083850312156115705761156f61118b565b5b600061157e85828601611243565b925050602061158f858286016112d9565b9150509250929050565b6000806000604084860312156115b2576115b161118b565b5b60006115c086828701611243565b935050602084013567ffffffffffffffff8111156115e1576115e0611190565b5b6115ed868287016111a4565b92509250509250925092565b600080602083850312156116105761160f61118b565b5b600083013567ffffffffffffffff81111561162e5761162d611190565b5b61163a858286016111a4565b92509250509250929050565b600082825260208201905092915050565b7f496e76616c696420747765657420636f756e7400000000000000000000000000600082015250565b600061168d601383611646565b915061169882611657565b602082019050919050565b600060208201905081810360008301526116bc81611680565b9050919050565b7f4e487b7100000000000000000000000000000000000000000000000000000000600052604160045260246000fd5b7f4e487b7100000000000000000000000000000000000000000000000000000000600052601160045260246000fd5b600061172c826112b8565b9150611737836112b8565b92508282101561174a576117496116f2565b5b828203905092915050565b6000611760826112b8565b915061176b836112b8565b9250827fffffffffffffffffffffffffffffffffffffffffffffffffffffffffffffffff038211156117a05761179f6116f2565b5b828201905092915050565b7f4e487b7100000000000000000000000000000000000000000000000000000000600052602260045260246000fd5b600060028204905060018216806117f257607f821691505b602082108103611805576118046117ab565b5b50919050565b7f4e487b7100000000000000000000000000000000000000000000000000000000600052603260045260246000fd5b6000611845826112b8565b91507fffffffffffffffffffffffffffffffffffffffffffffffffffffffffffffffff8203611877576118766116f2565b5b600182019050919050565b7f596f752063616e6e6f7420666f6c6c6f7720796f757273656c66000000000000600082015250565b60006118b8601a83611646565b91506118c382611882565b602082019050919050565b600060208201905081810360008301526118e7816118ab565b9050919050565b7f416c726561647920666f6c6c6f77696e672074686973206163636f756e740000600082015250565b6000611924601e83611646565b915061192f826118ee565b602082019050919050565b6000602082019050818103600083015261195381611917565b9050919050565b7f54686520747765657420646f6573206e6f742065786973740000000000000000600082015250565b6000611990601883611646565b915061199b8261195a565b602082019050919050565b600060208201905081810360008301526119bf81611983565b9050919050565b7f596f7520616c7265616479206c696b6564207468697320747765657400000000600082015250565b60006119fc601c83611646565b9150611a07826119c6565b602082019050919050565b60006020820190508181036000830152611a2b816119ef565b9050919050565b7f556e617574686f72697a6564206f70657261746f720000000000000000000000600082015250565b6000611a68601583611646565b9150611a7382611a32565b602082019050919050565b60006020820190508181036000830152611a9781611a5b565b9050919050565b60008160601b9050919050565b6000611ab682611a9e565b9050919050565b6000611ac882611aab565b9050919050565b611ae0611adb8261121a565b611abd565b82525050565b6000611af28285611acf565b601482019150611b028284611acf565b6014820191508190509392505050565b611b1b816112b8565b82525050565b6000611b2c82611356565b611b368185611646565b9350611b46818560208601611372565b611b4f816113a5565b840191505092915050565b6000606082019050611b6f6000830186611b12565b8181036020830152611b818185611b21565b9050611b906040830184611b12565b94935050505056fea26469706673582212200bb9243fbb69c306f249a5736437451b03dbd87676337a8dd117377a0aa7633364736f6c634300080d0033",
  "immutableReferences": {},
  "source": "// SPDX-License-Identifier: MIT\npragma solidity ^0.8.13;\npragma experimental ABIEncoderV2;\n\ncontract Twitter {\n    struct Tweet {\n        uint id;\n        string content;\n        address author;\n        uint createdDate;\n        uint likedTweetCounts;\n    }\n    struct Message {\n        uint id;\n        string content;\n        address from;\n        address to;\n        uint createdDate;\n    }\n\n    mapping(uint => Tweet) private tweets;\n    mapping(uint256 => Message[]) private conversations;\n    mapping(address => address[]) private following;\n    mapping(address => uint[]) private tweetsOf;\n    mapping(uint => mapping(address => bool)) private likedBy;\n    mapping(address => mapping(address => bool)) private operators;\n\n    event sendTweet(\n        uint id,\n        string content,\n        address indexed author,\n        uint createdDate\n    );\n    event sendMessage(\n        uint id,\n        string content,\n        address indexed from,\n        address indexed to,\n        uint createdDate\n    );\n\n    uint private nextTweetId;\n    uint private nextMessageId;\n\n    function tweet(string calldata _content) external {\n        _tweet(msg.sender, _content);\n    }\n\n    function tweetFrom(address _from, string calldata _content) external {\n        _tweet(_from, _content);\n    }\n\n    function message(string calldata _content, address _to) external {\n        _sendMessage(msg.sender, _to, _content);\n    }\n\n    function follow(address _followed) external {\n        require(_followed != msg.sender, \"You cannot follow yourself\");\n        for (uint i = 0; i < following[msg.sender].length; i++) {\n            require(\n                following[msg.sender][i] != _followed,\n                \"Already following this account\"\n            );\n        }\n        following[msg.sender].push(_followed);\n    }\n\n    function like(uint _tweetId) external {\n        require(_tweetId < nextTweetId, \"The tweet does not exist\");\n        require(!likedBy[_tweetId][msg.sender], \"You already liked this tweet\");\n\n        Tweet storage _tweeted = tweets[_tweetId];\n        _tweeted.likedTweetCounts++;\n        likedBy[_tweetId][msg.sender] = true;\n    }\n\n    function getlatestTweets(\n        uint count\n    ) external view returns (Tweet[] memory) {\n        require(count > 0 && count <= nextTweetId, \"Invalid tweet count\");\n\n        Tweet[] memory _tweets = new Tweet[](count);\n        for (uint i = 0; i < count; i++) {\n            uint tweetIndex = nextTweetId - count + i;\n            Tweet storage _tweeted = tweets[tweetIndex];\n            _tweets[i] = Tweet(\n                _tweeted.id,\n                _tweeted.content,\n                _tweeted.author,\n                _tweeted.createdDate,\n                _tweeted.likedTweetCounts\n            );\n        }\n        return _tweets;\n    }\n\n    function getTweetsOf(\n        address _user,\n        uint count\n    ) external view returns (Tweet[] memory) {\n        uint[] storage tweetIds = tweetsOf[_user];\n        require(count > 0 && count <= tweetIds.length, \"Invalid tweet count\");\n\n        Tweet[] memory _tweets = new Tweet[](count);\n        for (uint i = 0; i < count; i++) {\n            uint tweetIndex = tweetIds.length - count + i;\n            Tweet storage _tweeted = tweets[tweetIds[tweetIndex]];\n            _tweets[i] = Tweet(\n                _tweeted.id,\n                _tweeted.content,\n                _tweeted.author,\n                _tweeted.createdDate,\n                _tweeted.likedTweetCounts\n            );\n        }\n        return _tweets;\n    }\n\n    function _tweet(\n        address _from,\n        string memory _content\n    ) internal canOperate(_from) {\n        tweets[nextTweetId] = Tweet(\n            nextTweetId,\n            _content,\n            _from,\n            block.timestamp,\n            0\n        );\n        tweetsOf[_from].push(nextTweetId);\n        emit sendTweet(nextTweetId, _content, _from, block.timestamp);\n        nextTweetId++;\n    }\n\n    function _sendMessage(\n        address _from,\n        address _to,\n        string memory _content\n    ) internal canOperate(_from) {\n        uint256 conversationId = uint256(\n            keccak256(abi.encodePacked(_from, _to))\n        );\n        conversations[conversationId].push(\n            Message(nextMessageId, _content, _from, _to, block.timestamp)\n        );\n        emit sendMessage(nextMessageId, _content, _from, _to, block.timestamp);\n        nextMessageId++;\n    }\n\n    modifier canOperate(address _from) {\n        require(\n            _from == msg.sender || operators[_from][msg.sender],\n            \"Unauthorized operator\"\n        );\n        _;\n    }\n}\n",
  "sourcePath": "E:\\Coding\\Web3\\Web3 master\\X-com\\app\\contracts\\Twitter.sol",
  "compiler": {
    "name": "solc",
    "version": "0.8.13+commit.abaa5c0e.Emscripten.clang"
  },
  "schemaVersion": "3.4.16",
  "updatedAt": "2025-01-13T11:48:03.459Z",
  "devdoc": {
    "kind": "dev",
    "methods": {},
    "version": 1
  },
  "userdoc": {
    "kind": "user",
    "methods": {},
    "version": 1
  }
}