{
  "contractName": "Twitter",
  "abi": [
    {
      "anonymous": false,
      "inputs": [
        {
          "indexed": false,
          "internalType": "uint256",
          "name": "id",
          "type": "uint256"
        },
        {
          "indexed": false,
          "internalType": "string",
          "name": "content",
          "type": "string"
        },
        {
          "indexed": true,
          "internalType": "address",
          "name": "from",
          "type": "address"
        },
        {
          "indexed": true,
          "internalType": "address",
          "name": "to",
          "type": "address"
        },
        {
          "indexed": false,
          "internalType": "uint256",
          "name": "createdDate",
          "type": "uint256"
        }
      ],
      "name": "sendMessage",
      "type": "event"
    },
    {
      "anonymous": false,
      "inputs": [
        {
          "indexed": false,
          "internalType": "uint256",
          "name": "id",
          "type": "uint256"
        },
        {
          "indexed": false,
          "internalType": "string",
          "name": "content",
          "type": "string"
        },
        {
          "indexed": true,
          "internalType": "address",
          "name": "author",
          "type": "address"
        },
        {
          "indexed": false,
          "internalType": "uint256",
          "name": "createdDate",
          "type": "uint256"
        }
      ],
      "name": "sendTweet",
      "type": "event"
    },
    {
      "inputs": [
        {
          "internalType": "string",
          "name": "_content",
          "type": "string"
        }
      ],
      "name": "tweet",
      "outputs": [],
      "stateMutability": "nonpayable",
      "type": "function"
    },
    {
      "inputs": [
        {
          "internalType": "address",
          "name": "_from",
          "type": "address"
        },
        {
          "internalType": "string",
          "name": "_content",
          "type": "string"
        }
      ],
      "name": "tweetFrom",
      "outputs": [],
      "stateMutability": "nonpayable",
      "type": "function"
    },
    {
      "inputs": [
        {
          "internalType": "string",
          "name": "_content",
          "type": "string"
        },
        {
          "internalType": "address",
          "name": "_to",
          "type": "address"
        }
      ],
      "name": "message",
      "outputs": [],
      "stateMutability": "nonpayable",
      "type": "function"
    },
    {
      "inputs": [
        {
          "internalType": "address",
          "name": "_followed",
          "type": "address"
        }
      ],
      "name": "follow",
      "outputs": [],
      "stateMutability": "nonpayable",
      "type": "function"
    },
    {
      "inputs": [
        {
          "internalType": "uint256",
          "name": "_tweetId",
          "type": "uint256"
        }
      ],
      "name": "like",
      "outputs": [],
      "stateMutability": "nonpayable",
      "type": "function"
    },
    {
      "inputs": [
        {
          "internalType": "uint256",
          "name": "count",
          "type": "uint256"
        }
      ],
      "name": "getlatestTweets",
      "outputs": [
        {
          "components": [
            {
              "internalType": "uint256",
              "name": "id",
              "type": "uint256"
            },
            {
              "internalType": "string",
              "name": "content",
              "type": "string"
            },
            {
              "internalType": "address",
              "name": "author",
              "type": "address"
            },
            {
              "internalType": "uint256",
              "name": "createdDate",
              "type": "uint256"
            },
            {
              "internalType": "uint256",
              "name": "likedTweetCounts",
              "type": "uint256"
            }
          ],
          "internalType": "struct Twitter.Tweet[]",
          "name": "",
          "type": "tuple[]"
        }
      ],
      "stateMutability": "view",
      "type": "function",
      "constant": true
    },
    {
      "inputs": [
        {
          "internalType": "address",
          "name": "_user",
          "type": "address"
        },
        {
          "internalType": "uint256",
          "name": "count",
          "type": "uint256"
        }
      ],
      "name": "getTweetsOf",
      "outputs": [
        {
          "components": [
            {
              "internalType": "uint256",
              "name": "id",
              "type": "uint256"
            },
            {
              "internalType": "string",
              "name": "content",
              "type": "string"
            },
            {
              "internalType": "address",
              "name": "author",
              "type": "address"
            },
            {
              "internalType": "uint256",
              "name": "createdDate",
              "type": "uint256"
            },
            {
              "internalType": "uint256",
              "name": "likedTweetCounts",
              "type": "uint256"
            }
          ],
          "internalType": "struct Twitter.Tweet[]",
          "name": "",
          "type": "tuple[]"
        }
      ],
      "stateMutability": "view",
      "type": "function",
      "constant": true
    },
    {
      "inputs": [],
      "name": "getNextTweetId",
      "outputs": [
        {
          "internalType": "uint256",
          "name": "",
          "type": "uint256"
        }
      ],
      "stateMutability": "view",
      "type": "function",
      "constant": true
    }
  ],
  "bytecode": "0x608060405234801561001057600080fd5b50611baa806100206000396000f3fe608060405234801561001057600080fd5b50600436106100885760003560e01c8063a8fcb42c1161005b578063a8fcb42c14610125578063c6bc463c14610143578063e82935da1461015f578063fb46d4c51461017b57610088565b80630fa737f41461008d5780631f83ddac146100a95780634dbf27cc146100d95780635b4d4214146100f5575b600080fd5b6100a760048036038101906100a2919061126f565b610197565b005b6100c360048036038101906100be9190611305565b6101eb565b6040516100d09190611521565b60405180910390f35b6100f360048036038101906100ee9190611543565b6103fc565b005b61010f600480360381019061010a9190611570565b610657565b60405161011c9190611521565b60405180910390f35b61012d6108ce565b60405161013a91906115bf565b60405180910390f35b61015d600480360381019061015891906115da565b6108d8565b005b61017960048036038101906101749190611305565b61092b565b005b6101956004803603810190610190919061163a565b610aaa565b005b6101e6338285858080601f016020809104026020016040519081016040528093929190818152602001838380828437600081840152601f19601f82011690508083019250505050505050610afc565b505050565b60606000821180156101ff57506006548211155b61023e576040517f08c379a0000000000000000000000000000000000000000000000000000000008152600401610235906116e4565b60405180910390fd5b60008267ffffffffffffffff81111561025a57610259611704565b5b60405190808252806020026020018201604052801561029357816020015b6102806110ba565b8152602001906001900390816102785790505b5090506000836006546102a69190611762565b90505b838110156103f257600080600083815260200190815260200160002090506040518060a00160405280826000015481526020018260010180546102eb906117c5565b80601f0160208091040260200160405190810160405280929190818152602001828054610317906117c5565b80156103645780601f1061033957610100808354040283529160200191610364565b820191906000526020600020905b81548152906001019060200180831161034757829003601f168201915b505050505081526020018260020160009054906101000a900473ffffffffffffffffffffffffffffffffffffffff1673ffffffffffffffffffffffffffffffffffffffff1681526020018260030154815260200182600401548152508383815181106103d3576103d26117f6565b5b60200260200101819052505080806103ea90611825565b9150506102a9565b5080915050919050565b3373ffffffffffffffffffffffffffffffffffffffff168173ffffffffffffffffffffffffffffffffffffffff160361046a576040517f08c379a0000000000000000000000000000000000000000000000000000000008152600401610461906118b9565b60405180910390fd5b60005b600260003373ffffffffffffffffffffffffffffffffffffffff1673ffffffffffffffffffffffffffffffffffffffff168152602001908152602001600020805490508110156105b3578173ffffffffffffffffffffffffffffffffffffffff16600260003373ffffffffffffffffffffffffffffffffffffffff1673ffffffffffffffffffffffffffffffffffffffff168152602001908152602001600020828154811061051f5761051e6117f6565b5b9060005260206000200160009054906101000a900473ffffffffffffffffffffffffffffffffffffffff1673ffffffffffffffffffffffffffffffffffffffff16036105a0576040517f08c379a000000000000000000000000000000000000000000000000000000000815260040161059790611925565b60405180910390fd5b80806105ab90611825565b91505061046d565b50600260003373ffffffffffffffffffffffffffffffffffffffff1673ffffffffffffffffffffffffffffffffffffffff168152602001908152602001600020819080600181540180825580915050600190039060005260206000200160009091909190916101000a81548173ffffffffffffffffffffffffffffffffffffffff021916908373ffffffffffffffffffffffffffffffffffffffff16021790555050565b60606000600360008573ffffffffffffffffffffffffffffffffffffffff1673ffffffffffffffffffffffffffffffffffffffff16815260200190815260200160002090506000831180156106b0575080805490508311155b6106ef576040517f08c379a00000000000000000000000000000000000000000000000000000000081526004016106e6906116e4565b60405180910390fd5b60008367ffffffffffffffff81111561070b5761070a611704565b5b60405190808252806020026020018201604052801561074457816020015b6107316110ba565b8152602001906001900390816107295790505b50905060008483805490506107599190611762565b90505b848110156108c257600080600085848154811061077c5761077b6117f6565b5b9060005260206000200154815260200190815260200160002090506040518060a00160405280826000015481526020018260010180546107bb906117c5565b80601f01602080910402602001604051908101604052809291908181526020018280546107e7906117c5565b80156108345780601f1061080957610100808354040283529160200191610834565b820191906000526020600020905b81548152906001019060200180831161081757829003601f168201915b505050505081526020018260020160009054906101000a900473ffffffffffffffffffffffffffffffffffffffff1673ffffffffffffffffffffffffffffffffffffffff1681526020018260030154815260200182600401548152508383815181106108a3576108a26117f6565b5b60200260200101819052505080806108ba90611825565b91505061075c565b50809250505092915050565b6000600654905090565b6109268383838080601f016020809104026020016040519081016040528093929190818152602001838380828437600081840152601f19601f82011690508083019250505050505050610e08565b505050565b600654811061096f576040517f08c379a000000000000000000000000000000000000000000000000000000000815260040161096690611991565b60405180910390fd5b6004600082815260200190815260200160002060003373ffffffffffffffffffffffffffffffffffffffff1673ffffffffffffffffffffffffffffffffffffffff16815260200190815260200160002060009054906101000a900460ff1615610a0d576040517f08c379a0000000000000000000000000000000000000000000000000000000008152600401610a04906119fd565b60405180910390fd5b60008060008381526020019081526020016000209050806004016000815480929190610a3890611825565b919050555060016004600084815260200190815260200160002060003373ffffffffffffffffffffffffffffffffffffffff1673ffffffffffffffffffffffffffffffffffffffff16815260200190815260200160002060006101000a81548160ff0219169083151502179055505050565b610af83383838080601f016020809104026020016040519081016040528093929190818152602001838380828437600081840152601f19601f82011690508083019250505050505050610e08565b5050565b823373ffffffffffffffffffffffffffffffffffffffff168173ffffffffffffffffffffffffffffffffffffffff161480610bbd5750600560008273ffffffffffffffffffffffffffffffffffffffff1673ffffffffffffffffffffffffffffffffffffffff16815260200190815260200160002060003373ffffffffffffffffffffffffffffffffffffffff1673ffffffffffffffffffffffffffffffffffffffff16815260200190815260200160002060009054906101000a900460ff165b610bfc576040517f08c379a0000000000000000000000000000000000000000000000000000000008152600401610bf390611a69565b60405180910390fd5b60008484604051602001610c11929190611ad1565b6040516020818303038152906040528051906020012060001c9050600160008281526020019081526020016000206040518060a0016040528060075481526020018581526020018773ffffffffffffffffffffffffffffffffffffffff1681526020018673ffffffffffffffffffffffffffffffffffffffff168152602001428152509080600181540180825580915050600190039060005260206000209060050201600090919091909150600082015181600001556020820151816001019080519060200190610ce39291906110ff565b5060408201518160020160006101000a81548173ffffffffffffffffffffffffffffffffffffffff021916908373ffffffffffffffffffffffffffffffffffffffff16021790555060608201518160030160006101000a81548173ffffffffffffffffffffffffffffffffffffffff021916908373ffffffffffffffffffffffffffffffffffffffff1602179055506080820151816004015550508373ffffffffffffffffffffffffffffffffffffffff168573ffffffffffffffffffffffffffffffffffffffff167f074747cffefd503742c4925bc3306726a3ab7406edba1aa6bc9a6e34303264ca6007548642604051610de193929190611b36565b60405180910390a360076000815480929190610dfc90611825565b91905055505050505050565b813373ffffffffffffffffffffffffffffffffffffffff168173ffffffffffffffffffffffffffffffffffffffff161480610ec95750600560008273ffffffffffffffffffffffffffffffffffffffff1673ffffffffffffffffffffffffffffffffffffffff16815260200190815260200160002060003373ffffffffffffffffffffffffffffffffffffffff1673ffffffffffffffffffffffffffffffffffffffff16815260200190815260200160002060009054906101000a900460ff165b610f08576040517f08c379a0000000000000000000000000000000000000000000000000000000008152600401610eff90611a69565b60405180910390fd5b6040518060a0016040528060065481526020018381526020018473ffffffffffffffffffffffffffffffffffffffff16815260200142815260200160008152506000806006548152602001908152602001600020600082015181600001556020820151816001019080519060200190610f829291906110ff565b5060408201518160020160006101000a81548173ffffffffffffffffffffffffffffffffffffffff021916908373ffffffffffffffffffffffffffffffffffffffff1602179055506060820151816003015560808201518160040155905050600360008473ffffffffffffffffffffffffffffffffffffffff1673ffffffffffffffffffffffffffffffffffffffff16815260200190815260200160002060065490806001815401808255809150506001900390600052602060002001600090919091909150558273ffffffffffffffffffffffffffffffffffffffff167fe778fcdb48bbbb3d5c9c626fab1b64bcad12801dfbb980444d51554d433b1497600654844260405161109593929190611b36565b60405180910390a2600660008154809291906110b090611825565b9190505550505050565b6040518060a001604052806000815260200160608152602001600073ffffffffffffffffffffffffffffffffffffffff16815260200160008152602001600081525090565b82805461110b906117c5565b90600052602060002090601f01602090048101928261112d5760008555611174565b82601f1061114657805160ff1916838001178555611174565b82800160010185558215611174579182015b82811115611173578251825591602001919060010190611158565b5b5090506111819190611185565b5090565b5b8082111561119e576000816000905550600101611186565b5090565b600080fd5b600080fd5b600080fd5b600080fd5b600080fd5b60008083601f8401126111d1576111d06111ac565b5b8235905067ffffffffffffffff8111156111ee576111ed6111b1565b5b60208301915083600182028301111561120a576112096111b6565b5b9250929050565b600073ffffffffffffffffffffffffffffffffffffffff82169050919050565b600061123c82611211565b9050919050565b61124c81611231565b811461125757600080fd5b50565b60008135905061126981611243565b92915050565b600080600060408486031215611288576112876111a2565b5b600084013567ffffffffffffffff8111156112a6576112a56111a7565b5b6112b2868287016111bb565b935093505060206112c58682870161125a565b9150509250925092565b6000819050919050565b6112e2816112cf565b81146112ed57600080fd5b50565b6000813590506112ff816112d9565b92915050565b60006020828403121561131b5761131a6111a2565b5b6000611329848285016112f0565b91505092915050565b600081519050919050565b600082825260208201905092915050565b6000819050602082019050919050565b611367816112cf565b82525050565b600081519050919050565b600082825260208201905092915050565b60005b838110156113a757808201518184015260208101905061138c565b838111156113b6576000848401525b50505050565b6000601f19601f8301169050919050565b60006113d88261136d565b6113e28185611378565b93506113f2818560208601611389565b6113fb816113bc565b840191505092915050565b61140f81611231565b82525050565b600060a08301600083015161142d600086018261135e565b506020830151848203602086015261144582826113cd565b915050604083015161145a6040860182611406565b50606083015161146d606086018261135e565b506080830151611480608086018261135e565b508091505092915050565b60006114978383611415565b905092915050565b6000602082019050919050565b60006114b782611332565b6114c1818561133d565b9350836020820285016114d38561134e565b8060005b8581101561150f57848403895281516114f0858261148b565b94506114fb8361149f565b925060208a019950506001810190506114d7565b50829750879550505050505092915050565b6000602082019050818103600083015261153b81846114ac565b905092915050565b600060208284031215611559576115586111a2565b5b60006115678482850161125a565b91505092915050565b60008060408385031215611587576115866111a2565b5b60006115958582860161125a565b92505060206115a6858286016112f0565b9150509250929050565b6115b9816112cf565b82525050565b60006020820190506115d460008301846115b0565b92915050565b6000806000604084860312156115f3576115f26111a2565b5b60006116018682870161125a565b935050602084013567ffffffffffffffff811115611622576116216111a7565b5b61162e868287016111bb565b92509250509250925092565b60008060208385031215611651576116506111a2565b5b600083013567ffffffffffffffff81111561166f5761166e6111a7565b5b61167b858286016111bb565b92509250509250929050565b600082825260208201905092915050565b7f496e76616c696420747765657420636f756e7400000000000000000000000000600082015250565b60006116ce601383611687565b91506116d982611698565b602082019050919050565b600060208201905081810360008301526116fd816116c1565b9050919050565b7f4e487b7100000000000000000000000000000000000000000000000000000000600052604160045260246000fd5b7f4e487b7100000000000000000000000000000000000000000000000000000000600052601160045260246000fd5b600061176d826112cf565b9150611778836112cf565b92508282101561178b5761178a611733565b5b828203905092915050565b7f4e487b7100000000000000000000000000000000000000000000000000000000600052602260045260246000fd5b600060028204905060018216806117dd57607f821691505b6020821081036117f0576117ef611796565b5b50919050565b7f4e487b7100000000000000000000000000000000000000000000000000000000600052603260045260246000fd5b6000611830826112cf565b91507fffffffffffffffffffffffffffffffffffffffffffffffffffffffffffffffff820361186257611861611733565b5b600182019050919050565b7f596f752063616e6e6f7420666f6c6c6f7720796f757273656c66000000000000600082015250565b60006118a3601a83611687565b91506118ae8261186d565b602082019050919050565b600060208201905081810360008301526118d281611896565b9050919050565b7f416c726561647920666f6c6c6f77696e672074686973206163636f756e740000600082015250565b600061190f601e83611687565b915061191a826118d9565b602082019050919050565b6000602082019050818103600083015261193e81611902565b9050919050565b7f54686520747765657420646f6573206e6f742065786973740000000000000000600082015250565b600061197b601883611687565b915061198682611945565b602082019050919050565b600060208201905081810360008301526119aa8161196e565b9050919050565b7f596f7520616c7265616479206c696b6564207468697320747765657400000000600082015250565b60006119e7601c83611687565b91506119f2826119b1565b602082019050919050565b60006020820190508181036000830152611a16816119da565b9050919050565b7f556e617574686f72697a6564206f70657261746f720000000000000000000000600082015250565b6000611a53601583611687565b9150611a5e82611a1d565b602082019050919050565b60006020820190508181036000830152611a8281611a46565b9050919050565b60008160601b9050919050565b6000611aa182611a89565b9050919050565b6000611ab382611a96565b9050919050565b611acb611ac682611231565b611aa8565b82525050565b6000611add8285611aba565b601482019150611aed8284611aba565b6014820191508190509392505050565b6000611b088261136d565b611b128185611687565b9350611b22818560208601611389565b611b2b816113bc565b840191505092915050565b6000606082019050611b4b60008301866115b0565b8181036020830152611b5d8185611afd565b9050611b6c60408301846115b0565b94935050505056fea26469706673582212209d4b1cb1ac99ee16a1b5103ab183cad5a425a2b2e88d20c8ca19675be6c44eee64736f6c634300080d0033",
  "immutableReferences": {},
  "source": "// SPDX-License-Identifier: MIT\npragma solidity ^0.8.13;\npragma experimental ABIEncoderV2;\n\ncontract Twitter {\n    struct Tweet {\n        uint id;\n        string content;\n        address author;\n        uint createdDate;\n        uint likedTweetCounts;\n    }\n    struct Message {\n        uint id;\n        string content;\n        address from;\n        address to;\n        uint createdDate;\n    }\n\n    mapping(uint => Tweet) private tweets;\n    mapping(uint256 => Message[]) private conversations;\n    mapping(address => address[]) private following;\n    mapping(address => uint[]) private tweetsOf;\n    mapping(uint => mapping(address => bool)) private likedBy;\n    mapping(address => mapping(address => bool)) private operators;\n\n    event sendTweet(\n        uint id,\n        string content,\n        address indexed author,\n        uint createdDate\n    );\n    event sendMessage(\n        uint id,\n        string content,\n        address indexed from,\n        address indexed to,\n        uint createdDate\n    );\n\n    uint private nextTweetId;\n    uint private nextMessageId;\n\n    function tweet(string calldata _content) external {\n        _tweet(msg.sender, _content);\n    }\n\n    function tweetFrom(address _from, string calldata _content) external {\n        _tweet(_from, _content);\n    }\n\n    function message(string calldata _content, address _to) external {\n        _sendMessage(msg.sender, _to, _content);\n    }\n\n    function follow(address _followed) external {\n        require(_followed != msg.sender, \"You cannot follow yourself\");\n        for (uint i = 0; i < following[msg.sender].length; i++) {\n            require(\n                following[msg.sender][i] != _followed,\n                \"Already following this account\"\n            );\n        }\n        following[msg.sender].push(_followed);\n    }\n\n    function like(uint _tweetId) external {\n        require(_tweetId < nextTweetId, \"The tweet does not exist\");\n        require(!likedBy[_tweetId][msg.sender], \"You already liked this tweet\");\n\n        Tweet storage _tweeted = tweets[_tweetId];\n        _tweeted.likedTweetCounts++;\n        likedBy[_tweetId][msg.sender] = true;\n    }\n\n    function getlatestTweets(\n        uint count\n    ) external view returns (Tweet[] memory) {\n        require(count > 0 && count <= nextTweetId, \"Invalid tweet count\");\n\n        Tweet[] memory _tweets = new Tweet[](count);\n        for (uint i = nextTweetId - count; i < count; i++) {\n            Tweet storage _tweeted = tweets[i];\n            _tweets[i] = Tweet(\n                _tweeted.id,\n                _tweeted.content,\n                _tweeted.author,\n                _tweeted.createdDate,\n                _tweeted.likedTweetCounts\n            );\n        }\n        return _tweets;\n    }\n\n    function getTweetsOf(\n        address _user,\n        uint count\n    ) external view returns (Tweet[] memory) {\n        uint[] storage tweetIds = tweetsOf[_user];\n        require(count > 0 && count <= tweetIds.length, \"Invalid tweet count\");\n\n        Tweet[] memory _tweets = new Tweet[](count);\n        for (uint i = tweetIds.length - count; i < count; i++) {\n            Tweet storage _tweeted = tweets[tweetIds[i]];\n            _tweets[i] = Tweet(\n                _tweeted.id,\n                _tweeted.content,\n                _tweeted.author,\n                _tweeted.createdDate,\n                _tweeted.likedTweetCounts\n            );\n        }\n        return _tweets;\n    }\n\n    function getNextTweetId() external view returns (uint) {\n        return nextTweetId;\n    }\n\n    function _tweet(\n        address _from,\n        string memory _content\n    ) internal canOperate(_from) {\n        tweets[nextTweetId] = Tweet(\n            nextTweetId,\n            _content,\n            _from,\n            block.timestamp,\n            0\n        );\n        tweetsOf[_from].push(nextTweetId);\n        emit sendTweet(nextTweetId, _content, _from, block.timestamp);\n        nextTweetId++;\n    }\n\n    function _sendMessage(\n        address _from,\n        address _to,\n        string memory _content\n    ) internal canOperate(_from) {\n        uint256 conversationId = uint256(\n            keccak256(abi.encodePacked(_from, _to))\n        );\n        conversations[conversationId].push(\n            Message(nextMessageId, _content, _from, _to, block.timestamp)\n        );\n        emit sendMessage(nextMessageId, _content, _from, _to, block.timestamp);\n        nextMessageId++;\n    }\n\n    modifier canOperate(address _from) {\n        require(\n            _from == msg.sender || operators[_from][msg.sender],\n            \"Unauthorized operator\"\n        );\n        _;\n    }\n}\n",
  "sourcePath": "E:\\Coding\\Web3\\Web3 master\\X-com\\app\\contracts\\Twitter.sol",
  "compiler": {
    "name": "solc",
    "version": "0.8.13+commit.abaa5c0e.Emscripten.clang"
  },
  "schemaVersion": "3.4.16",
  "updatedAt": "2025-01-15T12:16:53.225Z",
  "networkType": "ethereum",
  "devdoc": {
    "kind": "dev",
    "methods": {},
    "version": 1
  },
  "userdoc": {
    "kind": "user",
    "methods": {},
    "version": 1
  }
}