{
  "contractName": "Twitter",
  "abi": [
    {
      "anonymous": false,
      "inputs": [
        {
          "indexed": false,
          "internalType": "uint256",
          "name": "id",
          "type": "uint256"
        },
        {
          "indexed": false,
          "internalType": "string",
          "name": "content",
          "type": "string"
        },
        {
          "indexed": true,
          "internalType": "address",
          "name": "from",
          "type": "address"
        },
        {
          "indexed": true,
          "internalType": "address",
          "name": "to",
          "type": "address"
        },
        {
          "indexed": false,
          "internalType": "uint256",
          "name": "createdDate",
          "type": "uint256"
        }
      ],
      "name": "sendMessage",
      "type": "event"
    },
    {
      "anonymous": false,
      "inputs": [
        {
          "indexed": false,
          "internalType": "uint256",
          "name": "id",
          "type": "uint256"
        },
        {
          "indexed": false,
          "internalType": "string",
          "name": "content",
          "type": "string"
        },
        {
          "indexed": true,
          "internalType": "address",
          "name": "author",
          "type": "address"
        },
        {
          "indexed": false,
          "internalType": "uint256",
          "name": "createdDate",
          "type": "uint256"
        }
      ],
      "name": "sendTweet",
      "type": "event"
    },
    {
      "inputs": [
        {
          "internalType": "string",
          "name": "_content",
          "type": "string"
        }
      ],
      "name": "tweet",
      "outputs": [],
      "stateMutability": "nonpayable",
      "type": "function"
    },
    {
      "inputs": [
        {
          "internalType": "address",
          "name": "_from",
          "type": "address"
        },
        {
          "internalType": "string",
          "name": "_content",
          "type": "string"
        }
      ],
      "name": "tweetFrom",
      "outputs": [],
      "stateMutability": "nonpayable",
      "type": "function"
    },
    {
      "inputs": [
        {
          "internalType": "string",
          "name": "_content",
          "type": "string"
        },
        {
          "internalType": "address",
          "name": "_to",
          "type": "address"
        }
      ],
      "name": "message",
      "outputs": [],
      "stateMutability": "nonpayable",
      "type": "function"
    },
    {
      "inputs": [
        {
          "internalType": "address",
          "name": "_followed",
          "type": "address"
        }
      ],
      "name": "follow",
      "outputs": [],
      "stateMutability": "nonpayable",
      "type": "function"
    },
    {
      "inputs": [
        {
          "internalType": "uint256",
          "name": "_tweetId",
          "type": "uint256"
        }
      ],
      "name": "like",
      "outputs": [],
      "stateMutability": "nonpayable",
      "type": "function"
    },
    {
      "inputs": [
        {
          "internalType": "uint256",
          "name": "count",
          "type": "uint256"
        }
      ],
      "name": "getlatestTweets",
      "outputs": [
        {
          "components": [
            {
              "internalType": "uint256",
              "name": "id",
              "type": "uint256"
            },
            {
              "internalType": "string",
              "name": "content",
              "type": "string"
            },
            {
              "internalType": "address",
              "name": "author",
              "type": "address"
            },
            {
              "internalType": "uint256",
              "name": "createdDate",
              "type": "uint256"
            },
            {
              "internalType": "uint256",
              "name": "likedTweetCounts",
              "type": "uint256"
            }
          ],
          "internalType": "struct Twitter.Tweet[]",
          "name": "",
          "type": "tuple[]"
        }
      ],
      "stateMutability": "view",
      "type": "function",
      "constant": true
    },
    {
      "inputs": [
        {
          "internalType": "address",
          "name": "_user",
          "type": "address"
        },
        {
          "internalType": "uint256",
          "name": "count",
          "type": "uint256"
        }
      ],
      "name": "getTweetsOf",
      "outputs": [
        {
          "components": [
            {
              "internalType": "uint256",
              "name": "id",
              "type": "uint256"
            },
            {
              "internalType": "string",
              "name": "content",
              "type": "string"
            },
            {
              "internalType": "address",
              "name": "author",
              "type": "address"
            },
            {
              "internalType": "uint256",
              "name": "createdDate",
              "type": "uint256"
            },
            {
              "internalType": "uint256",
              "name": "likedTweetCounts",
              "type": "uint256"
            }
          ],
          "internalType": "struct Twitter.Tweet[]",
          "name": "",
          "type": "tuple[]"
        }
      ],
      "stateMutability": "view",
      "type": "function",
      "constant": true
    },
    {
      "inputs": [],
      "name": "getNextTweetId",
      "outputs": [
        {
          "internalType": "uint256",
          "name": "",
          "type": "uint256"
        }
      ],
      "stateMutability": "view",
      "type": "function",
      "constant": true
    }
  ],
  "bytecode": "0x608060405234801561001057600080fd5b50611c1c806100206000396000f3fe608060405234801561001057600080fd5b50600436106100885760003560e01c8063a8fcb42c1161005b578063a8fcb42c14610125578063c6bc463c14610143578063e82935da1461015f578063fb46d4c51461017b57610088565b80630fa737f41461008d5780631f83ddac146100a95780634dbf27cc146100d95780635b4d4214146100f5575b600080fd5b6100a760048036038101906100a2919061128b565b610197565b005b6100c360048036038101906100be9190611321565b6101eb565b6040516100d0919061153d565b60405180910390f35b6100f360048036038101906100ee919061155f565b61040a565b005b61010f600480360381019061010a919061158c565b610665565b60405161011c919061153d565b60405180910390f35b61012d6108ea565b60405161013a91906115db565b60405180910390f35b61015d600480360381019061015891906115f6565b6108f4565b005b61017960048036038101906101749190611321565b610947565b005b61019560048036038101906101909190611656565b610ac6565b005b6101e6338285858080601f016020809104026020016040519081016040528093929190818152602001838380828437600081840152601f19601f82011690508083019250505050505050610b18565b505050565b60606000821180156101ff57506006548211155b61023e576040517f08c379a000000000000000000000000000000000000000000000000000000000815260040161023590611700565b60405180910390fd5b60008267ffffffffffffffff81111561025a57610259611720565b5b60405190808252806020026020018201604052801561029357816020015b6102806110d6565b8152602001906001900390816102785790505b50905060005b8381101561040057600081856006546102b2919061177e565b6102bc91906117b2565b9050600080600083815260200190815260200160002090506040518060a00160405280826000015481526020018260010180546102f890611837565b80601f016020809104026020016040519081016040528092919081815260200182805461032490611837565b80156103715780601f1061034657610100808354040283529160200191610371565b820191906000526020600020905b81548152906001019060200180831161035457829003601f168201915b505050505081526020018260020160009054906101000a900473ffffffffffffffffffffffffffffffffffffffff1673ffffffffffffffffffffffffffffffffffffffff1681526020018260030154815260200182600401548152508484815181106103e0576103df611868565b5b6020026020010181905250505080806103f890611897565b915050610299565b5080915050919050565b3373ffffffffffffffffffffffffffffffffffffffff168173ffffffffffffffffffffffffffffffffffffffff1603610478576040517f08c379a000000000000000000000000000000000000000000000000000000000815260040161046f9061192b565b60405180910390fd5b60005b600260003373ffffffffffffffffffffffffffffffffffffffff1673ffffffffffffffffffffffffffffffffffffffff168152602001908152602001600020805490508110156105c1578173ffffffffffffffffffffffffffffffffffffffff16600260003373ffffffffffffffffffffffffffffffffffffffff1673ffffffffffffffffffffffffffffffffffffffff168152602001908152602001600020828154811061052d5761052c611868565b5b9060005260206000200160009054906101000a900473ffffffffffffffffffffffffffffffffffffffff1673ffffffffffffffffffffffffffffffffffffffff16036105ae576040517f08c379a00000000000000000000000000000000000000000000000000000000081526004016105a590611997565b60405180910390fd5b80806105b990611897565b91505061047b565b50600260003373ffffffffffffffffffffffffffffffffffffffff1673ffffffffffffffffffffffffffffffffffffffff168152602001908152602001600020819080600181540180825580915050600190039060005260206000200160009091909190916101000a81548173ffffffffffffffffffffffffffffffffffffffff021916908373ffffffffffffffffffffffffffffffffffffffff16021790555050565b60606000600360008573ffffffffffffffffffffffffffffffffffffffff1673ffffffffffffffffffffffffffffffffffffffff16815260200190815260200160002090506000831180156106be575080805490508311155b6106fd576040517f08c379a00000000000000000000000000000000000000000000000000000000081526004016106f490611700565b60405180910390fd5b60008367ffffffffffffffff81111561071957610718611720565b5b60405190808252806020026020018201604052801561075257816020015b61073f6110d6565b8152602001906001900390816107375790505b50905060005b848110156108de57600081868580549050610773919061177e565b61077d91906117b2565b9050600080600086848154811061079757610796611868565b5b9060005260206000200154815260200190815260200160002090506040518060a00160405280826000015481526020018260010180546107d690611837565b80601f016020809104026020016040519081016040528092919081815260200182805461080290611837565b801561084f5780601f106108245761010080835404028352916020019161084f565b820191906000526020600020905b81548152906001019060200180831161083257829003601f168201915b505050505081526020018260020160009054906101000a900473ffffffffffffffffffffffffffffffffffffffff1673ffffffffffffffffffffffffffffffffffffffff1681526020018260030154815260200182600401548152508484815181106108be576108bd611868565b5b6020026020010181905250505080806108d690611897565b915050610758565b50809250505092915050565b6000600654905090565b6109428383838080601f016020809104026020016040519081016040528093929190818152602001838380828437600081840152601f19601f82011690508083019250505050505050610e24565b505050565b600654811061098b576040517f08c379a000000000000000000000000000000000000000000000000000000000815260040161098290611a03565b60405180910390fd5b6004600082815260200190815260200160002060003373ffffffffffffffffffffffffffffffffffffffff1673ffffffffffffffffffffffffffffffffffffffff16815260200190815260200160002060009054906101000a900460ff1615610a29576040517f08c379a0000000000000000000000000000000000000000000000000000000008152600401610a2090611a6f565b60405180910390fd5b60008060008381526020019081526020016000209050806004016000815480929190610a5490611897565b919050555060016004600084815260200190815260200160002060003373ffffffffffffffffffffffffffffffffffffffff1673ffffffffffffffffffffffffffffffffffffffff16815260200190815260200160002060006101000a81548160ff0219169083151502179055505050565b610b143383838080601f016020809104026020016040519081016040528093929190818152602001838380828437600081840152601f19601f82011690508083019250505050505050610e24565b5050565b823373ffffffffffffffffffffffffffffffffffffffff168173ffffffffffffffffffffffffffffffffffffffff161480610bd95750600560008273ffffffffffffffffffffffffffffffffffffffff1673ffffffffffffffffffffffffffffffffffffffff16815260200190815260200160002060003373ffffffffffffffffffffffffffffffffffffffff1673ffffffffffffffffffffffffffffffffffffffff16815260200190815260200160002060009054906101000a900460ff165b610c18576040517f08c379a0000000000000000000000000000000000000000000000000000000008152600401610c0f90611adb565b60405180910390fd5b60008484604051602001610c2d929190611b43565b6040516020818303038152906040528051906020012060001c9050600160008281526020019081526020016000206040518060a0016040528060075481526020018581526020018773ffffffffffffffffffffffffffffffffffffffff1681526020018673ffffffffffffffffffffffffffffffffffffffff168152602001428152509080600181540180825580915050600190039060005260206000209060050201600090919091909150600082015181600001556020820151816001019080519060200190610cff92919061111b565b5060408201518160020160006101000a81548173ffffffffffffffffffffffffffffffffffffffff021916908373ffffffffffffffffffffffffffffffffffffffff16021790555060608201518160030160006101000a81548173ffffffffffffffffffffffffffffffffffffffff021916908373ffffffffffffffffffffffffffffffffffffffff1602179055506080820151816004015550508373ffffffffffffffffffffffffffffffffffffffff168573ffffffffffffffffffffffffffffffffffffffff167f074747cffefd503742c4925bc3306726a3ab7406edba1aa6bc9a6e34303264ca6007548642604051610dfd93929190611ba8565b60405180910390a360076000815480929190610e1890611897565b91905055505050505050565b813373ffffffffffffffffffffffffffffffffffffffff168173ffffffffffffffffffffffffffffffffffffffff161480610ee55750600560008273ffffffffffffffffffffffffffffffffffffffff1673ffffffffffffffffffffffffffffffffffffffff16815260200190815260200160002060003373ffffffffffffffffffffffffffffffffffffffff1673ffffffffffffffffffffffffffffffffffffffff16815260200190815260200160002060009054906101000a900460ff165b610f24576040517f08c379a0000000000000000000000000000000000000000000000000000000008152600401610f1b90611adb565b60405180910390fd5b6040518060a0016040528060065481526020018381526020018473ffffffffffffffffffffffffffffffffffffffff16815260200142815260200160008152506000806006548152602001908152602001600020600082015181600001556020820151816001019080519060200190610f9e92919061111b565b5060408201518160020160006101000a81548173ffffffffffffffffffffffffffffffffffffffff021916908373ffffffffffffffffffffffffffffffffffffffff1602179055506060820151816003015560808201518160040155905050600360008473ffffffffffffffffffffffffffffffffffffffff1673ffffffffffffffffffffffffffffffffffffffff16815260200190815260200160002060065490806001815401808255809150506001900390600052602060002001600090919091909150558273ffffffffffffffffffffffffffffffffffffffff167fe778fcdb48bbbb3d5c9c626fab1b64bcad12801dfbb980444d51554d433b149760065484426040516110b193929190611ba8565b60405180910390a2600660008154809291906110cc90611897565b9190505550505050565b6040518060a001604052806000815260200160608152602001600073ffffffffffffffffffffffffffffffffffffffff16815260200160008152602001600081525090565b82805461112790611837565b90600052602060002090601f0160209004810192826111495760008555611190565b82601f1061116257805160ff1916838001178555611190565b82800160010185558215611190579182015b8281111561118f578251825591602001919060010190611174565b5b50905061119d91906111a1565b5090565b5b808211156111ba5760008160009055506001016111a2565b5090565b600080fd5b600080fd5b600080fd5b600080fd5b600080fd5b60008083601f8401126111ed576111ec6111c8565b5b8235905067ffffffffffffffff81111561120a576112096111cd565b5b602083019150836001820283011115611226576112256111d2565b5b9250929050565b600073ffffffffffffffffffffffffffffffffffffffff82169050919050565b60006112588261122d565b9050919050565b6112688161124d565b811461127357600080fd5b50565b6000813590506112858161125f565b92915050565b6000806000604084860312156112a4576112a36111be565b5b600084013567ffffffffffffffff8111156112c2576112c16111c3565b5b6112ce868287016111d7565b935093505060206112e186828701611276565b9150509250925092565b6000819050919050565b6112fe816112eb565b811461130957600080fd5b50565b60008135905061131b816112f5565b92915050565b600060208284031215611337576113366111be565b5b60006113458482850161130c565b91505092915050565b600081519050919050565b600082825260208201905092915050565b6000819050602082019050919050565b611383816112eb565b82525050565b600081519050919050565b600082825260208201905092915050565b60005b838110156113c35780820151818401526020810190506113a8565b838111156113d2576000848401525b50505050565b6000601f19601f8301169050919050565b60006113f482611389565b6113fe8185611394565b935061140e8185602086016113a5565b611417816113d8565b840191505092915050565b61142b8161124d565b82525050565b600060a083016000830151611449600086018261137a565b506020830151848203602086015261146182826113e9565b91505060408301516114766040860182611422565b506060830151611489606086018261137a565b50608083015161149c608086018261137a565b508091505092915050565b60006114b38383611431565b905092915050565b6000602082019050919050565b60006114d38261134e565b6114dd8185611359565b9350836020820285016114ef8561136a565b8060005b8581101561152b578484038952815161150c85826114a7565b9450611517836114bb565b925060208a019950506001810190506114f3565b50829750879550505050505092915050565b6000602082019050818103600083015261155781846114c8565b905092915050565b600060208284031215611575576115746111be565b5b600061158384828501611276565b91505092915050565b600080604083850312156115a3576115a26111be565b5b60006115b185828601611276565b92505060206115c28582860161130c565b9150509250929050565b6115d5816112eb565b82525050565b60006020820190506115f060008301846115cc565b92915050565b60008060006040848603121561160f5761160e6111be565b5b600061161d86828701611276565b935050602084013567ffffffffffffffff81111561163e5761163d6111c3565b5b61164a868287016111d7565b92509250509250925092565b6000806020838503121561166d5761166c6111be565b5b600083013567ffffffffffffffff81111561168b5761168a6111c3565b5b611697858286016111d7565b92509250509250929050565b600082825260208201905092915050565b7f496e76616c696420747765657420636f756e7400000000000000000000000000600082015250565b60006116ea6013836116a3565b91506116f5826116b4565b602082019050919050565b60006020820190508181036000830152611719816116dd565b9050919050565b7f4e487b7100000000000000000000000000000000000000000000000000000000600052604160045260246000fd5b7f4e487b7100000000000000000000000000000000000000000000000000000000600052601160045260246000fd5b6000611789826112eb565b9150611794836112eb565b9250828210156117a7576117a661174f565b5b828203905092915050565b60006117bd826112eb565b91506117c8836112eb565b9250827fffffffffffffffffffffffffffffffffffffffffffffffffffffffffffffffff038211156117fd576117fc61174f565b5b828201905092915050565b7f4e487b7100000000000000000000000000000000000000000000000000000000600052602260045260246000fd5b6000600282049050600182168061184f57607f821691505b60208210810361186257611861611808565b5b50919050565b7f4e487b7100000000000000000000000000000000000000000000000000000000600052603260045260246000fd5b60006118a2826112eb565b91507fffffffffffffffffffffffffffffffffffffffffffffffffffffffffffffffff82036118d4576118d361174f565b5b600182019050919050565b7f596f752063616e6e6f7420666f6c6c6f7720796f757273656c66000000000000600082015250565b6000611915601a836116a3565b9150611920826118df565b602082019050919050565b6000602082019050818103600083015261194481611908565b9050919050565b7f416c726561647920666f6c6c6f77696e672074686973206163636f756e740000600082015250565b6000611981601e836116a3565b915061198c8261194b565b602082019050919050565b600060208201905081810360008301526119b081611974565b9050919050565b7f54686520747765657420646f6573206e6f742065786973740000000000000000600082015250565b60006119ed6018836116a3565b91506119f8826119b7565b602082019050919050565b60006020820190508181036000830152611a1c816119e0565b9050919050565b7f596f7520616c7265616479206c696b6564207468697320747765657400000000600082015250565b6000611a59601c836116a3565b9150611a6482611a23565b602082019050919050565b60006020820190508181036000830152611a8881611a4c565b9050919050565b7f556e617574686f72697a6564206f70657261746f720000000000000000000000600082015250565b6000611ac56015836116a3565b9150611ad082611a8f565b602082019050919050565b60006020820190508181036000830152611af481611ab8565b9050919050565b60008160601b9050919050565b6000611b1382611afb565b9050919050565b6000611b2582611b08565b9050919050565b611b3d611b388261124d565b611b1a565b82525050565b6000611b4f8285611b2c565b601482019150611b5f8284611b2c565b6014820191508190509392505050565b6000611b7a82611389565b611b8481856116a3565b9350611b948185602086016113a5565b611b9d816113d8565b840191505092915050565b6000606082019050611bbd60008301866115cc565b8181036020830152611bcf8185611b6f565b9050611bde60408301846115cc565b94935050505056fea264697066735822122000afb83e63d25e0d0c873ac428eb50275d956b60d98359610d7242daeb96b77064736f6c634300080d0033",
  "immutableReferences": {},
  "source": "// SPDX-License-Identifier: MIT\npragma solidity ^0.8.13;\npragma experimental ABIEncoderV2;\n\ncontract Twitter {\n    struct Tweet {\n        uint id;\n        string content;\n        address author;\n        uint createdDate;\n        uint likedTweetCounts;\n    }\n    struct Message {\n        uint id;\n        string content;\n        address from;\n        address to;\n        uint createdDate;\n    }\n\n    mapping(uint => Tweet) private tweets;\n    mapping(uint256 => Message[]) private conversations;\n    mapping(address => address[]) private following;\n    mapping(address => uint[]) private tweetsOf;\n    mapping(uint => mapping(address => bool)) private likedBy;\n    mapping(address => mapping(address => bool)) private operators;\n\n    event sendTweet(\n        uint id,\n        string content,\n        address indexed author,\n        uint createdDate\n    );\n    event sendMessage(\n        uint id,\n        string content,\n        address indexed from,\n        address indexed to,\n        uint createdDate\n    );\n\n    uint private nextTweetId;\n    uint private nextMessageId;\n\n    function tweet(string calldata _content) external {\n        _tweet(msg.sender, _content);\n    }\n\n    function tweetFrom(address _from, string calldata _content) external {\n        _tweet(_from, _content);\n    }\n\n    function message(string calldata _content, address _to) external {\n        _sendMessage(msg.sender, _to, _content);\n    }\n\n    function follow(address _followed) external {\n        require(_followed != msg.sender, \"You cannot follow yourself\");\n        for (uint i = 0; i < following[msg.sender].length; i++) {\n            require(\n                following[msg.sender][i] != _followed,\n                \"Already following this account\"\n            );\n        }\n        following[msg.sender].push(_followed);\n    }\n\n    function like(uint _tweetId) external {\n        require(_tweetId < nextTweetId, \"The tweet does not exist\");\n        require(!likedBy[_tweetId][msg.sender], \"You already liked this tweet\");\n\n        Tweet storage _tweeted = tweets[_tweetId];\n        _tweeted.likedTweetCounts++;\n        likedBy[_tweetId][msg.sender] = true;\n    }\n\n    function getlatestTweets(\n        uint count\n    ) external view returns (Tweet[] memory) {\n        require(count > 0 && count <= nextTweetId, \"Invalid tweet count\");\n\n        Tweet[] memory _tweets = new Tweet[](count);\n        for (uint i = 0; i < count; i++) {\n            uint tweetIndex = nextTweetId - count + i;\n            Tweet storage _tweeted = tweets[tweetIndex];\n            _tweets[i] = Tweet(\n                _tweeted.id,\n                _tweeted.content,\n                _tweeted.author,\n                _tweeted.createdDate,\n                _tweeted.likedTweetCounts\n            );\n        }\n        return _tweets;\n    }\n\n    function getTweetsOf(\n        address _user,\n        uint count\n    ) external view returns (Tweet[] memory) {\n        uint[] storage tweetIds = tweetsOf[_user];\n        require(count > 0 && count <= tweetIds.length, \"Invalid tweet count\");\n\n        Tweet[] memory _tweets = new Tweet[](count);\n        for (uint i = 0; i < count; i++) {\n            uint tweetIndex = tweetIds.length - count + i;\n            Tweet storage _tweeted = tweets[tweetIds[tweetIndex]];\n            _tweets[i] = Tweet(\n                _tweeted.id,\n                _tweeted.content,\n                _tweeted.author,\n                _tweeted.createdDate,\n                _tweeted.likedTweetCounts\n            );\n        }\n        return _tweets;\n    }\n\n    function getNextTweetId() external view returns (uint) {\n        return nextTweetId;\n    }\n\n    function _tweet(\n        address _from,\n        string memory _content\n    ) internal canOperate(_from) {\n        tweets[nextTweetId] = Tweet(\n            nextTweetId,\n            _content,\n            _from,\n            block.timestamp,\n            0\n        );\n        tweetsOf[_from].push(nextTweetId);\n        emit sendTweet(nextTweetId, _content, _from, block.timestamp);\n        nextTweetId++;\n    }\n\n    function _sendMessage(\n        address _from,\n        address _to,\n        string memory _content\n    ) internal canOperate(_from) {\n        uint256 conversationId = uint256(\n            keccak256(abi.encodePacked(_from, _to))\n        );\n        conversations[conversationId].push(\n            Message(nextMessageId, _content, _from, _to, block.timestamp)\n        );\n        emit sendMessage(nextMessageId, _content, _from, _to, block.timestamp);\n        nextMessageId++;\n    }\n\n    modifier canOperate(address _from) {\n        require(\n            _from == msg.sender || operators[_from][msg.sender],\n            \"Unauthorized operator\"\n        );\n        _;\n    }\n}\n",
  "sourcePath": "E:\\Coding\\Web3\\Web3 master\\X-com\\app\\contracts\\Twitter.sol",
  "compiler": {
    "name": "solc",
    "version": "0.8.13+commit.abaa5c0e.Emscripten.clang"
  },
  "schemaVersion": "3.4.16",
  "updatedAt": "2025-01-15T10:10:11.516Z",
  "networkType": "ethereum",
  "devdoc": {
    "kind": "dev",
    "methods": {},
    "version": 1
  },
  "userdoc": {
    "kind": "user",
    "methods": {},
    "version": 1
  }
}